{
  "transactions": [
    {
      "hash": "0xca9d8d78a996d07978257da3b7ac9aa1fd684fb47bb447efa9cdd85980826bdc",
      "transactionType": "CALL",
      "contractName": "LinkToken",
      "contractAddress": "0x779877A7B0D9E8603169DdbD7836e478b4624789",
      "function": "transferAndCall(address,uint256,bytes):(bool)",
      "arguments": [
        "0x8103B0A8A00be2DDC778e6e7eaa21791Cd364625",
        "3000000000000000000 \u001b[2;49;39m[3e18]\u001b[0m",
        "0x0000000000000000000000000000000000000000000000000000000000000d99"
      ],
      "transaction": {
        "type": "0x02",
        "from": "0x7b79079271a010e28b73d1f88c84c6720e2ef903",
        "to": "0x779877a7b0d9e8603169ddbd7836e478b4624789",
        "gas": "0x13fbe",
        "value": "0x0",
        "data": "0x4000aea00000000000000000000000008103b0a8a00be2ddc778e6e7eaa21791cd36462500000000000000000000000000000000000000000000000029a2241af62c0000000000000000000000000000000000000000000000000000000000000000006000000000000000000000000000000000000000000000000000000000000000200000000000000000000000000000000000000000000000000000000000000d99",
        "nonce": "0x4",
        "accessList": []
      },
      "additionalContracts": [],
      "isFixedGasLimit": false
    }
  ],
  "receipts": [
    {
      "transactionHash": "0xca9d8d78a996d07978257da3b7ac9aa1fd684fb47bb447efa9cdd85980826bdc",
      "transactionIndex": "0x3",
      "blockHash": "0x0ba1e89fba1fa126714da70e9af171c9ddd5547638ec525119a11800da0e96bd",
      "blockNumber": "0x3b76fc",
      "from": "0x7B79079271A010E28b73d1F88c84C6720E2EF903",
      "to": "0x779877A7B0D9E8603169DdbD7836e478b4624789",
      "cumulativeGasUsed": "0xdb735",
      "gasUsed": "0xe77e",
      "contractAddress": null,
      "logs": [
        {
          "address": "0x779877A7B0D9E8603169DdbD7836e478b4624789",
          "topics": [
            "0xddf252ad1be2c89b69c2b068fc378daa952ba7f163c4a11628f55a4df523b3ef",
            "0x0000000000000000000000007b79079271a010e28b73d1f88c84c6720e2ef903",
            "0x0000000000000000000000008103b0a8a00be2ddc778e6e7eaa21791cd364625"
          ],
          "data": "0x00000000000000000000000000000000000000000000000029a2241af62c0000",
          "blockHash": "0x0ba1e89fba1fa126714da70e9af171c9ddd5547638ec525119a11800da0e96bd",
          "blockNumber": "0x3b76fc",
          "transactionHash": "0xca9d8d78a996d07978257da3b7ac9aa1fd684fb47bb447efa9cdd85980826bdc",
          "transactionIndex": "0x3",
          "logIndex": "0x9",
          "removed": false
        },
        {
          "address": "0x779877A7B0D9E8603169DdbD7836e478b4624789",
          "topics": [
            "0xe19260aff97b920c7df27010903aeb9c8d2be5d310a2c67824cf3f15396e4c16",
            "0x0000000000000000000000007b79079271a010e28b73d1f88c84c6720e2ef903",
            "0x0000000000000000000000008103b0a8a00be2ddc778e6e7eaa21791cd364625"
          ],
          "data": "0x00000000000000000000000000000000000000000000000029a2241af62c0000000000000000000000000000000000000000000000000000000000000000004000000000000000000000000000000000000000000000000000000000000000200000000000000000000000000000000000000000000000000000000000000d99",
          "blockHash": "0x0ba1e89fba1fa126714da70e9af171c9ddd5547638ec525119a11800da0e96bd",
          "blockNumber": "0x3b76fc",
          "transactionHash": "0xca9d8d78a996d07978257da3b7ac9aa1fd684fb47bb447efa9cdd85980826bdc",
          "transactionIndex": "0x3",
          "logIndex": "0xa",
          "removed": false
        },
        {
          "address": "0x8103B0A8A00be2DDC778e6e7eaa21791Cd364625",
          "topics": [
            "0xd39ec07f4e209f627a4c427971473820dc129761ba28de8906bd56f57101d4f8",
            "0x0000000000000000000000000000000000000000000000000000000000000d99"
          ],
          "data": "0x0000000000000000000000000000000000000000000000004563918244f400000000000000000000000000000000000000000000000000006f05b59d3b200000",
          "blockHash": "0x0ba1e89fba1fa126714da70e9af171c9ddd5547638ec525119a11800da0e96bd",
          "blockNumber": "0x3b76fc",
          "transactionHash": "0xca9d8d78a996d07978257da3b7ac9aa1fd684fb47bb447efa9cdd85980826bdc",
          "transactionIndex": "0x3",
          "logIndex": "0xb",
          "removed": false
        }
      ],
      "status": "0x1",
      "logsBloom": "0x0000001400000010000000000000000000000000000000020000000002000000000000000000800000000020000000000000000000000000000000000000000000000000000000000000010800000000000000000000000000012000000000000000000000000000000000000000000000000000400000000000001000000000000000000c000020000000000000800010000020000000000000000000000000000000000000000000000000000000000000000000000000000400000000000000000002000000000000000000000000000000000000000100000000020000000000000000000000000000000000000000000000000000000000000000000200",
      "type": "0x2",
      "effectiveGasPrice": "0xb2d05e10"
    }
  ],
  "libraries": [],
  "pending": [],
  "returns": {},
  "timestamp": 1689424093,
  "chain": 11155111,
  "multi": false,
  "commit": "7cf792b"
}