{
  "transactions": [
    {
      "hash": "0xca9d8d78a996d07978257da3b7ac9aa1fd684fb47bb447efa9cdd85980826bdc",
      "transactionType": "CALL",
      "contractName": "LinkToken",
      "contractAddress": "0x779877A7B0D9E8603169DdbD7836e478b4624789",
      "function": "transferAndCall(address,uint256,bytes):(bool)",
      "arguments": [
        "0x8103B0A8A00be2DDC778e6e7eaa21791Cd364625",
        "3000000000000000000 \u001b[2;49;39m[3e18]\u001b[0m",
        "0x0000000000000000000000000000000000000000000000000000000000000d99"
      ],
      "transaction": {
        "type": "0x02",
        "from": "0x7b79079271a010e28b73d1f88c84c6720e2ef903",
        "to": "0x779877a7b0d9e8603169ddbd7836e478b4624789",
        "gas": "0x13fbe",
        "value": "0x0",
        "data": "0x4000aea00000000000000000000000008103b0a8a00be2ddc778e6e7eaa21791cd36462500000000000000000000000000000000000000000000000029a2241af62c0000000000000000000000000000000000000000000000000000000000000000006000000000000000000000000000000000000000000000000000000000000000200000000000000000000000000000000000000000000000000000000000000d99",
        "nonce": "0x4",
        "accessList": []
      },
      "additionalContracts": [],
      "isFixedGasLimit": false
    }
  ],
  "receipts": [],
  "libraries": [],
  "pending": [
    "0xca9d8d78a996d07978257da3b7ac9aa1fd684fb47bb447efa9cdd85980826bdc"
  ],
  "returns": {},
  "timestamp": 1689424080,
  "chain": 11155111,
  "multi": false,
  "commit": "7cf792b"
}